:020000020000FC
:100000000AC0FECFFDCFFCCFFBCFFACFF9CFF8CFA0
:10001000F7CFF6CF73C0FF24A0E6B0E000E0FD927A
:100020000A95E9F70DE008BB02E107BB06E007BD52
:1000300001E600BF00E60CBD0EE309BD02E00ABD0B
:1000400002E003BF00E109BFEEEBF1E0F894882481
:100050009924772478942591359131D0F89482169B
:1000600093067894D0F345914F3F71F3042F03D05A
:100070004078C9F3F0CFFF93EF93E02FEE0FFF2707
:10008000E655FB4F05911591C0916000C75FC633DF
:1000900008F0CC27C0936000DD27CF59DF4F2AE15D
:1000A00036E0F894198308833C832B8378940FEF10
:1000B0000D830E83FF82F886EF91FF910895FF93E1
:1000C000EF93C1E6D0E00E811FEF011789F01E8388
:1000D0000F8103950C3008F000E00F8348F0E885AD
:1000E000E39531F0E887FF27E65EFA4F04910D8330
:1000F0002996C73941F7EF91FF910895EFB66F0147
:100100005E01C1E6D0E0222433249A81EB81FC8198
:10011000849148805980940DE51DFF1DFA3018F038
:10012000E05BF040FE829A83FC83EB839D81182E76
:1001300087FD8195002490FD080E069491FD080E20
:10014000069492FD080E069493FD080E002494FD7B
:10015000080E069495FD080E069496FD080E06946A
:1001600097FD080E110C1F2C10F401941108200C9F
:10017000311C2996C73949F635942794359427942C
:100180008DEF90E0281639060CF01C0181E09FEFFE
:10019000281639060CF41C01359427943794822DC7
:1001A0008058982F909537FC83958EBD9BBD089401
:1001B0007F1C8F1C9F1CF601E501EFBE1895000007
:1001C0009100009114008C14008C28009D28009D43
:1001D0003C008C3C008C50009150009164008C6479
:1001E000008C78009D78009D8C008C8C008CA00089
:1001F00091A00091B4008CB4008CC8009DC8009DF3
:10020000DC008CDC008CF00091F0009104018C0487
:10021000018C18019D18019D2C018C2C018C400132
:100220009D40019140019D40019154019854018CE1
:1002300054019854018C6801A968019D6801A9685E
:10024000019D7C01987C018C7C01987C018C900143
:100250009D90019190019D900191A40198A4018C21
:10026000A40198A4018CB801A9B8019DB801A9B84E
:10027000019DCC0198CC018CCC0198CC018CE00183
:100280009DE00191E0019DE00191F40198F4018C61
:10029000F40198F4018C0802A908029D0802A9083B
:1002A000029D1C02981C028C1C02981C028C3002BD
:1002B0009D30029130029D30029144029844028C9C
:1002C00044029844028C5802A958029D5802A95829
:1002D000029D6C02986C028C6C02986C028C8002FD
:1002E000A980029D8002918002A980029D800291D6
:1002F0009402A494029894028C9402A49402989478
:10030000028CA802B5A802A9A8029DA802B5A8025D
:10031000A9A8029DBC02A4BC0298BC028CBC02A489
:10032000BC0298BC028CD002A9D0029DD00291D010
:1003300002A9D0029DD00291E402A4E40298E40252
:100340008CE402A4E40298E4028CF802B5F802A955
:10035000F8029DF802B5F802A9F8029D0C03A40C5E
:1003600003980C038C0C03A40C03980C038C20033F
:10037000A920039D2003912003A920039D20039120
:100380003403A434039834038C3403A43403983422
:10039000038C4803B54803A948039D4803B54803A7
:1003A000A948039D5C03A45C03985C038C5C03A4D4
:1003B0005C03985C038C7003A970039D70039170BB
:1003C00003A970039D7003918403A484039884039C
:1003D0008C8403A484039884038C9803B59803A9A0
:1003E00098039D9803B59803A998039DAC03A4AC0A
:1003F0000398AC038CAC03A4AC0398AC038CC0038F
:1004000099C0038DC00399C0038DE803A9E8039D3B
:10041000E803A9E8039DFC03ACFC03A0FC03ACFCCF
:1004200003A01004A71004A71004A71004A7240415
:10043000992404992404992404993804A93804A916
:100440003804A93804A94C04A04C04A04C04A04CC6
:1004500004A06004A760049B6004A760049B880458
:10046000AB88049F8804AB88049F9C04AE9C04A2C4
:100470009C04AE9C04A2B004A9B004A9B004A9B025
:1004800004A9C404ABC404ABC404ABC404ABD80417
:10049000AED804AED804AED804AEEC04B5EC04B5C6
:1004A000EC04B5EC04B5302AFF00E100EF00FD00DC
:1004B0000C011C012D013F01520166017B019101DC
:1004C000A901C301DD01FA011802380259027D02B7
:1004D000A302CB02F602230353038503BB03F303FA
:1004E00030046F04B304FA0446059605EB0546068E
:1004F000A5060A077507E7075F08DF086609F5091B
:100500008C0A2D0BD70B8B0C4A0D140EEA0ECE0F56
:10051000BE10BE11CC12EA131815FFFCFAF7F5F362
:10052000F0EEEBE9E7E4E2E0DEDBD9D7D5D3D1CFDB
:10053000CDCBC9C7C5C3C1BFBDBBB9B7B6B4B2B0D7
:10054000AEADABA9A8A6A4A3A19F9E9C9B9998968B
:10055000959392908F8D8C8B8988868584828180FB
:100560007F7D7C7B7A78777675747371706F6E6D32
:100570006C6B6A696867666564636261605F5E5D33
:100580005C5B5A5958575756555453525251504F15
:100590004E4E4D4C4B4B4A494848474645454443CF
:1005A0004342414140403F3E3E3D3C3C3B3B3A396B
:1005B00039383837373636353534333332323131EE
:1005C0003030302F2F2E2E2D2D2C2C2B2B2B2A2A5A
:1005D00029282827272626252524232322222121CE
:1005E000201F1F1E1E1D1D1C1C1B1A1A191918184E
:1005F00017161615151414131312111110100F0FCE
:100600000E0D0D0C0C0B0B0A0A090808070706064D
:1006100005040403030202010100FCFCFCF9F6F3EB
:10062000F3F70006080501FFFDFE00030504FEF2D6
:10063000E2D3CACBD1DBEAF90614232F393F444772
:10064000443D322519110E101212111213141516F1
:1006500017161109FDEEDDD1CBCCD1D9E2E9EEF2CE
:10066000F7FC01080F1416140F0B0807090E1316D8
:100670001717140F0C0B0D0F0F0901F8EFE8E8EA3C
:10068000EEF4F8F9F4EAE0D9D8DBDFE3E4E2DFDF07
:10069000E1E6EFFD0A151B1A15100C090700F6E735
:1006A000D8CBC1BCBFC7D2DDE5E8E7E5E3E4E6E5CA
:1006B000E2DCD4CCC4C1C3CAD7E9FD0F1F2D394435
:1006C0004D5356554D43382B201816181E232729F5
:1006D0002A2A2C2E31312F2B221404F6ECE8E9EDD6
:1006E000F3F9FD00060E161F272E31302C27232389
:1006F00026292A28221C15100D0C0C0A0701F9EED8
:10070000E4DFDEE1E3E5E5E5E2E0DDDCDBDBDCDDEB
:10071000DFE0E2E8F1FD081520292F343635322ECE
:100720002A23190D00F5EBE6E6EAEEF4F9FCFBF6F8
:10073000F0EAE5DFD8CFC5B9AEA8A7ABB2BECBD93A
:10074000E4EFF800091014120B00F4E9DFD9D8D84F
:10075000DADCDEDEDEDFE1E5E8E8E5E0D9D1CAC5D6
:10076000C3C3C5C9CFD5DDE6F2FF0C18232B313644
:100770003A3E42464A4E5152514E4945413F3D3B19
:1007800037332F2A24201E1D1E1F1F1C18120F0D69
:100790000A070504030203070E1925323C404241B3
:1007A000403E3A362F261B0E01F7EEEAEAEDF0F353
:1007B000F5F6F6F5F4F2ECE5DCD3CAC2BDBDC1C76F
:1007C000D0DAE5F1FC081520292F32312D271F162C
:1007D0000F0905030201000000FFFCFAF8F4F0E93C
:1007E000E1D7CDC5C0BCB8B6B6B6B6B8BDC4CBD4DB
:1007F000DCE2E4E4E4E7EBEEF1F4F3F1ECE7E2DD74
:10080000D9D8D6D2CEC9C7C6C7CACED1D3D3D4D4ED
:10081000D4D5D7DADBDCDEE0E3E9F2FF0C1B2A39C2
:1008200047525B6266686765615A534B45403D3B82
:100830003B3D40434648474644403B33291E13084E
:1008400001FFFF0208111A21272D353D4347484576
:100850003F362C221A130E0B070300FDFDFDFEFE92
:10086000FBF6EFE8E1DAD5D1D0CFCCCAC9C9CBD0FD
:10087000D8E1EAF2FA00060B10161B1F22232422ED
:100880001F1B17110B04FEF8F2EEEAE6E4E3E3E2C5
:10089000E0DDD9D4CEC8C3BFBBB8B5B3B1AFB0B734
:1008A000C1CDDAE6EEF4F8F9F9F7F3EFE9E1D6CCE9
:1008B000C3BEBCBDC0C3C6C9CDD0D3D7DADCDBD87C
:1008C000D2CCC6C3C5CAD1D9E4F0FE0C1A2938452A
:1008D00050585E60605F5D5A5753504F4E4D4D4EBD
:1008E0004E4F5050504D48423B332C27231F1D1B69
:1008F00019161413151A1F252B2F31333436383996
:100900003A3A38322A231C150F0902FAF1EAE5E2D5
:10091000E1E2E5E7E7E5E0DCD8D5D3D2CFCCCBCA3E
:10092000CBCED4DDE9F5010E1821282D30302B2453
:100930001C120800F8F2EEECEBECECECEDECEBE961
:10094000E6E2DDD6CEC4BAB1A9A6A7ABB2BAC3CB94
:10095000D3DAE2E9EFF3F6F5F1EAE3DDD9D5D2CF68
:10096000CBC7C5C4C6C8CCCFD2D2CFCBC8C6C6C8E9
:10097000CBCDCED0D3D7DCE3ECF7FE050D141B2195
:10098000262B3033373A3D4044474B4F53575B5E3D
:1009900061626363615E5B56504A443D37312D2985
:1009A0002624232324252628292B2B2B2B2A2826D3
:1009B0002422201F1E1E1E1E1F2122232424232129
:1009C0001F1C18130E0903FFFAF6F3F1F0F0F1F310
:1009D000F6F9FC000205080A0B0C0C0B0A090806C4
:1009E0000505040405050505050301FFFBF6F0E90F
:1009F000E1D9D1C9C1BAB4AEAAA7A5A4A4A5A6A895
:100A0000AAACADAEAFAFAFAFAFAFAFAFB0B2B4B7F0
:100A1000BBBFC3C7CCCFD3D5D7D8D8D8D7D5D4D3DD
:0A0A2000D2D2D3D4D7DBE1E7EEF623
:00000001FF
