:020000020000FC
:100000000AC0FECFFDCFFCCFFBCFFACFF9CFF8CFA0
:10001000F7CFF6CF73C0FF24A0E6B0E000E0FD927A
:100020000A95E9F70DE008BB02E107BB06E007BD52
:1000300001E600BF00E60CBD0EE309BD02E00ABD0B
:1000400002E003BF00E109BFEEEBF1E0F894882481
:100050009924772478942591359131D0F89482169B
:1000600093067894D0F345914F3F71F3042F03D05A
:100070004078C9F3F0CFFF93EF93E02FEE0FFF2707
:10008000E655FB4F05911591C0916000C75FC633DF
:1000900008F0CC27C0936000DD27CF59DF4F2AE15D
:1000A00036E0F894198308833C832B8378940FEF10
:1000B0000D830E83FF82F886EF91FF910895FF93E1
:1000C000EF93C1E6D0E00E811FEF011789F01E8388
:1000D0000F8103950C3008F000E00F8348F0E885AD
:1000E000E39531F0E887FF27E65EFA4F04910D8330
:1000F0002996C73941F7EF91FF910895EFB66F0147
:100100005E01C1E6D0E0222433249A81EB81FC8198
:10011000849148805980940DE51DFF1DFF3018F033
:10012000E255F240FE829A83FC83EB839D81182E78
:1001300087FD8195002490FD080E069491FD080E20
:10014000069492FD080E069493FD080E002494FD7B
:10015000080E069495FD080E069496FD080E06946A
:1001600097FD080E110C1F2C10F401941108200C9F
:10017000311C2996C73949F635942794359427942C
:100180008DEF90E0281639060CF01C0181E09FEFFE
:10019000281639060CF41C01359427943794822DC7
:1001A0008058982F909537FC83958EBD9BBD089401
:1001B0007F1C8F1C9F1CF601E501EFBE1895000007
:1001C0009100009114008C14008C28009D28009D43
:1001D0003C008C3C008C50009150009164008C6479
:1001E000008C78009D78009D8C008C8C008CA00089
:1001F00091A00091B4008CB4008CC8009DC8009DF3
:10020000DC008CDC008CF00091F0009104018C0487
:10021000018C18019D18019D2C018C2C018C400132
:100220009D40019140019D40019154019854018CE1
:1002300054019854018C6801A968019D6801A9685E
:10024000019D7C01987C018C7C01987C018C900143
:100250009D90019190019D900191A40198A4018C21
:10026000A40198A4018CB801A9B8019DB801A9B84E
:10027000019DCC0198CC018CCC0198CC018CE00183
:100280009DE00191E0019DE00191F40198F4018C61
:10029000F40198F4018C0802A908029D0802A9083B
:1002A000029D1C02981C028C1C02981C028C3002BD
:1002B0009D30029130029D30029144029844028C9C
:1002C00044029844028C5802A958029D5802A95829
:1002D000029D6C02986C028C6C02986C028C8002FD
:1002E000A980029D8002918002A980029D800291D6
:1002F0009402A494029894028C9402A49402989478
:10030000028CA802B5A802A9A8029DA802B5A8025D
:10031000A9A8029DBC02A4BC0298BC028CBC02A489
:10032000BC0298BC028CD002A9D0029DD00291D010
:1003300002A9D0029DD00291E402A4E40298E40252
:100340008CE402A4E40298E4028CF802B5F802A955
:10035000F8029DF802B5F802A9F8029D0C03A40C5E
:1003600003980C038C0C03A40C03980C038C20033F
:10037000A920039D2003912003A920039D20039120
:100380003403A434039834038C3403A43403983422
:10039000038C4803B54803A948039D4803B54803A7
:1003A000A948039D5C03A45C03985C038C5C03A4D4
:1003B0005C03985C038C7003A970039D70039170BB
:1003C00003A970039D7003918403A484039884039C
:1003D0008C8403A484039884038C9803B59803A9A0
:1003E00098039D9803B59803A998039DAC03A4AC0A
:1003F0000398AC038CAC03A4AC0398AC038CC0038F
:1004000099C0038DC00399C0038DE803A9E8039D3B
:10041000E803A9E8039DFC03ACFC03A0FC03ACFCCF
:1004200003A01004A71004A71004A71004A7240415
:10043000992404992404992404993804A93804A916
:100440003804A93804A94C04A04C04A04C04A04CC6
:1004500004A06004A760049B6004A760049B880458
:10046000AB88049F8804AB88049F9C04AE9C04A2C4
:100470009C04AE9C04A2B004A9B004A9B004A9B025
:1004800004A9C404ABC404ABC404ABC404ABD80417
:10049000AED804AED804AED804AEEC04B5EC04B5C6
:1004A000EC04B5EC04B5302AFF00E100EF00FD00DC
:1004B0000C011C012D013F01520166017B019101DC
:1004C000A901C301DD01FA011802380259027D02B7
:1004D000A302CB02F602230353038503BB03F303FA
:1004E00030046F04B304FA0446059605EB0546068E
:1004F000A5060A077507E7075F08DF086609F5091B
:100500008C0A2D0BD70B8B0C4A0D140EEA0ECE0F56
:10051000BE10BE11CC12EA131815FFFCFAF7F5F362
:10052000F0EEEBE9E7E4E2E0DEDBD9D7D5D3D1CFDB
:10053000CDCBC9C7C5C3C1BFBDBBB9B7B6B4B2B0D7
:10054000AEADABA9A8A6A4A3A19F9E9C9B9998968B
:10055000959392908F8D8C8B8988868584828180FB
:100560007F7D7C7B7A78777675747371706F6E6D32
:100570006C6B6A696867666564636261605F5E5D33
:100580005C5B5A5958575756555453525251504F15
:100590004E4E4D4C4B4B4A494848474645454443CF
:1005A0004342414140403F3E3E3D3C3C3B3B3A396B
:1005B00039383837373636353534333332323131EE
:1005C0003030302F2F2E2E2D2D2C2C2B2B2B2A2A5A
:1005D00029282827272626252524232322222121CE
:1005E000201F1F1E1E1D1D1C1C1B1A1A191918184E
:1005F00017161615151414131312111110100F0FCE
:100600000E0D0D0C0C0B0B0A0A090808070706064D
:10061000050404030302020101000508090B0C0F85
:1006200011131517181A1C1E1F2123242628292BE5
:100630002C2D2F3132343537383A3B3B3B3B3B3A5C
:100640003A39383736353332302F2E2C2B2A292899
:100650002726262524232221201F1D1C1A191715A1
:100660001312100E0B09080604030100000000001D
:100670000000010101010202020202020201010066
:1006800000FFFEFDFBFAF8F7F5F3F1EEECEAE7E523
:10069000E3E2E0DFDDDCDCDBDBDBDCDDDFE1E3E66E
:1006A000E9EDF1F5F9FD01050A0F13181C202427C7
:1006B0002A2C2E2F3031313131302F2E2D2C2A295A
:1006C000272523201E1B191613100E0B08050300E7
:1006D000FFFDFCFAF9F8F7F6F6F6F6F6F7F7F8F894
:1006E000F9FAFBFBFCFDFEFF00000001020304051C
:1006F000060707080807070605040200FFFDFAF8C9
:10070000F5F2EEEBE8E4E1DEDAD7D4D1CECBC9C71F
:10071000C5C3C1C0BFBEBDBDBCBCBCBCBDBDBEBFF2
:10072000BFC0C1C2C3C4C5C6C7C8C9C9CACBCBCC68
:10073000CCCCCCCCCCCBCAC9C8C7C5C4C2C0BFBD49
:10074000BBB9B8B7B5B4B3B2B2B1B1B1B1B1B1B26E
:10075000B3B4B5B6B7B9BABCBEC0C3C5C8CBCED1A9
:10076000D4D8DBDFE3E7EAEEF2F6F9FD0002050894
:100770000A0C0D0F0F1010100F0E0D0C0A080604B6
:100780000200FEFBF8F5F2EFECE9E6E2DFDCD9D699
:10079000D3D0CECBC9C6C5C3C1C0BFBEBDBDBDBC15
:1007A000BCBDBDBDBDBDBEBEBEBEBEBEBEBEBEBD71
:1007B000BDBCBCBBBBBABAB9B8B8B7B7B6B6B5B5AD
:1007C000B5B4B4B4B3B3B3B2B2B1B1B1B1B1B1B104
:1007D000B2B3B4B5B6B8BABDBFC3C6CACED2D6DB03
:1007E000DFE4E8EDF2F6FBFF02060A0E1215181B15
:1007F0001D20222425272829292A2A292928272695
:100800002523211F1D1B181613110F0D0B09070699
:1008100004030302020101020202030304050606A7
:10082000070809090A0B0B0C0D0D0E0F0F10111202
:100830001314141516161717171716161514131266
:10084000100F0D0C0A08070504020100000000FF4C
:10085000FF0000000102040507090B0D0F12151718
:100860001A1D2024272A2E3135383C3F4245484B5B
:100870004E50525455565757575757565554535232
:10088000504F4E4D4C4C4B4A4A49494948484848BC
:10089000484848484949494A4B4B4C4D4E505152A3
:1008A000545657595B5C5E5F616263646566666659
:1008B00066666565646362605F5D5B585654514E61
:1008C0004C4946423F3B3834312D2925221E1A1708
:1008D00013100D0A0705030100FFFFFEFEFEFEFEDA
:1008E000FFFF0000010202030404040505040404E0
:1008F00003030202010000FFFFFEFDFCFCFBFAF90E
:10090000F8F7F7F6F5F4F4F3F2F2F2F2F1F2F2F3AB
:10091000F4F5F6F7F9FBFDFF000306080B0E1013C4
:1009200016191C1F212426292B2E30323436383A32
:100930003C3D3F40414142424241413F3E3C3A37CB
:1009400035312E2A26221D19140F0B0601FEFAF648
:10095000F2EFEBE8E6E3E1DEDDDBD9D8D6D5D4D3A0
:10096000D2D1D0CFCECECDCCCCCBCACAC9C8C8C7C5
:10097000C7C6C5C4C3C2C1BFBEBDBBB9B8B6B4B398
:10098000B1B0AFADACABAAAAA9A9A9A9A9AAAAABB3
:10099000ACADAFB0B2B4B5B7B9BBBDC0C2C5C7CAC4
:1009A000CDD0D4D7DBDEE2E6E9EDF1F5F8FBFF01CF
:1009B0000306080A0C0D0E0F0F0F0F0F0E0D0B0A7A
:1009C0000806030100FDFBF8F5F3F0EEEBE9E7E5BF
:1009D000E3E1DFDEDCDBDAD9D8D8D7D7D7D7D7D871
:1009E000D8D9D9DADBDBDCDCDDDDDDDDDDDCDCDB51
:1009F000DAD9D8D7D5D4D3D1D0CECDCCCBCAC9C8EB
:100A0000C7C6C5C4C3C2C1C0BEBDBCBBBAB8B7B6F9
:100A1000B5B5B4B4B3B3B4B4B5B5B6B8B9BBBCBE70
:100A2000C1C3C5C8CBCDD0D3D6D8DBDEE0E3E5E784
:100A3000E9EBEDEFF0F1F2F3F3F4F4F4F4F4F4F3A2
:100A4000F3F2F1F0EFEEEDECEBEAE9E8E7E7E7E7E8
:100A5000E7E7E8E9EAECEEF0F2F5F7FAFDFF01046A
:100A600006090B0D0F1113151617191A1B1C1D1E45
:100A70001F1F20202121222222222121201F1E1D72
:100A80001B1A18161412100D0B0906040200FFFDA4
:100A9000FCFAF9F7F6F5F5F4F3F3F3F3F3F3F4F402
:100AA000F5F6F7F9FAFCFDFF00020406080A0C0E41
:100AB0000F111213141516161717161616151514EE
:100AC0001313121111111111111213141517191BEF
:100AD0001D202225272A2D303336393C3F424548F8
:100AE0004B4E5255585B5E6265686B6D70737577DF
:100AF000797B7C7D7E7F7F7F7F7F7F7E7D7C7A7927
:100B0000777573716E6C696663605C5955514D4AB7
:100B100046423E3A3733302D2A2826242221201FF0
:100B20001E1D1D1D1C1C1C1C1C1B1B1A1A19181712
:100B3000161413110F0E0C0A0806040200FFFDFB29
:100B4000F9F7F6F4F3F2F0EFEEEEEDECECECECEDA1
:100B5000EDEEEFF0F2F3F5F7F9FCFE000205080BFD
:100B60000D101315181A1C1E2022242628292B2CA0
:100B70002E2F313233353637373838383838373624
:100B80003533312F2D2B2825221F1C1915120F0D3F
:100B90000A0705030100FFFDFCFBFBFAF9F9F9F96F
:100BA000F8F8F8F8F8F8F8F8F8F8F8F7F7F7F6F5CD
:100BB000F5F4F3F2F0EFEDEBE9E7E5E2E0DDDAD8AA
:100BC000D5D2CFCCCAC7C5C2C0BEBDBBBAB9B8B7F3
:100BD000B6B6B5B5B5B5B6B6B6B6B7B7B7B8B9B9AE
:100BE000BABABBBCBDBEBFC0C2C3C5C7C8CACCCDE4
:100BF000CFD1D2D4D5D6D8D8D9D9DADADAD9D9D88A
:100C0000D7D6D5D4D3D2D0CFCECCCBCAC9C8C7C6FD
:100C1000C6C5C5C5C5C5C6C7C8C9CBCDCED1D3D538
:100C2000D8DADDDFE2E4E6E9EBECEEF0F1F2F2F344
:100C3000F3F3F2F2F1F0EFEDECEAE8E6E4E2E0DF04
:100C4000DDDBD9D7D5D4D2D1CFCDCCCAC8C7C5C4A6
:100C5000C2C0BFBDBCBAB9B7B6B5B4B3B3B2B2B116
:100C6000B1B1B1B1B2B2B3B3B4B5B6B7B8B9BABB3A
:100C7000BCBDBEBFC0C1C2C3C4C5C5C6C6C6C6C64C
:100C8000C6C5C5C4C4C3C2C1C1C0C0BFBFBFC0C048
:100C9000C1C3C4C6C9CBCED1D5D8DCE0E4E9EDF1FF
:100CA000F5FAFE0105080C0F1316181B1D1F212352
:100CB00024262728282929292A2A2A2929282827B1
:100CC0002625242321201E1D1B1917161412100F70
:100CD0000D0B0A0807050403010000FFFEFDFCFBE5
:100CE000FAF9F8F8F8F7F8F8F8F9F9FAFBFCFDFE6C
:100CF000FF0000000102020202020201010000FFE7
:100D0000FEFDFCFAF9F9F8F7F7F7F7F7F8F9FAFB4F
:100D1000FDFF000205080B0E1115181C1F23262AC3
:100D20002E3135383C3F4346494C4F5255585A5C5A
:100D30005E60626365666767686868696868686856
:100D40006766666564636262605F5E5D5C5A5957A0
:100D5000565453514F4D4C4A4847454443424141F4
:100D6000414141414142424344444545454646464E
:100D7000454544434241403E3D3B39373432302DB6
:100D80002B292624211F1C1A18151411110BFEFBE8
:100D9000FAF8F6F5F3F2F1F0EFEEEDEDECECECED48
:100DA000EDEEEEF0F1F2F4F6F8FBFD0001040709B8
:100DB0000C0F121417191B1D2021232527282A2C5C
:100DC0002D2F3032333435363738383838383737D6
:100DD000353432302E2C292623201D1A1714110EDB
:100DE0000B0806040200FFFEFDFCFBFAFAF9F9F914
:100DF000F8F8F8F8F8F8F8F8F8F8F8F7F7F7F6F67A
:100E0000F5F4F3F2F1EFEEECEAE8E6E3E1DEDCD94B
:100E1000D6D3D0CDCBC8C6C3C1BFBDBCBAB9B8B795
:100E2000B7B6B6B5B5B5B5B6B6B6B6B7B7B8B8B95C
:100E3000B9BABBBCBDBEBFC0C1C3C4C6C8C9CBCD97
:100E4000CED0D2D3D5D6D7D8D9D9DADADAD9D9D83B
:100E5000D8D7D6D5D3D2D1D0CECDCCCBC9C8C7C7A1
:100E6000C6C5C5C5C5C5C6C6C7C9CACCCED0D2D4ED
:100E7000D7D9DCDEE1E3E5E8EAECEDEFF0F1F2F3FF
:100E8000F3F3F3F2F1F0EFEEECEBE9E7E5E3E1DFAA
:100E9000DEDCDAD8D6D5D3D1D0CECCCBC9C8C6C447
:100EA000C3C1BFBEBCBBB9B8B7B6B5B4B3B2B2B1BB
:100EB000B1B1B1B1B2B2B2B3B4B4B5B6B7B8B9BAF0
:100EC000BBBCBEBFC0C1C2C3C4C4C5C6C6C6C6C6FD
:100ED000C6C6C5C5C4C3C2C2C1C0C0BFBFBFC0C0F3
:100EE000C1C2C4C5C8CACDD0D3D7DADEE2E7EBEFC2
:100EF000F4F8FC0003070A0E1114171A1C1E202216
:100F000024252627282929292A2A2A292929282760
:100F10002625242322201F1D1C1A18161513110F15
:100F20000E0C0B0908060503020100FFFEFDFCFB89
:100F3000FAF9F9F8F8F8F8F8F8F8F9FAFAFBFCFD1C
:100F4000FEFF00000101020203020202010000FF95
:100F5000FEFDFCFBFAF9F8F8F7F7F7F7F8F8F9FBFC
:100F6000FCFE00010407090D1013161A1E21252886
:100F70002C3033373A3E4145484B4E515457595B1C
:100F80005D5F61636465666768686869686868680A
:100F9000676766656564636261605F5E5C5B5A5843
:100FA00057555352504E4C4B494746454443424196
:100FB00041414141414142434344444545464646FF
:100FC000464545444342403F3D3C3A383533312F56
:100FD0002C2A272522201D1B191615121208FF0086
:00000001FF
