:020000020000FC
:1000000065C015C01895189512C0189518951895C3
:1000100018951895189518952EC005C0189518951F
:100020001895189518955FB663945FBE18955FB6DE
:100030005F920F931F930091A300039503700093A9
:10004000A300002399F423940CE3201679F42224CE
:1000500033946160301639F433244394626008E1CC
:10006000401609F444247894C7FEAAD11F910F9139
:100070005F905FBE18955FB65F920F931F93C2FCAF
:1000800020C0072D172D13951370712E003029F401
:10009000959A082D7FD1C29814C0013029F4C29AD4
:1000A000092D78D1C3980DC0023039F4C39A0A2DB6
:1000B000C0FC00686FD1C49804C0C49A0B2D6AD1EB
:1000C00095981F910F915F905FBE18950FE50DBF3A
:1000D0000FEF0BBB00E00ABB0FEF08BB0FE107BB44
:1000E0000FEE02BB03E701BB01E005BF00E40BBF5D
:1000F00002E000BF05E003BF01E009BF00E008BF68
:1001000004E706BF00E002BF772400E00FBD0AE06D
:100110000EBD00E002BD09B7006209BF0EE015EA9E
:100120000BBD1ABD0EE015EA09BD18BD00E00DBDFE
:100130000CBD00E0402E302E202E00E00093A300E6
:100140003FD100E00093600000E00093B000009316
:10015000B2000093B1000093B3000093B40066278F
:1001600004E00CBBDDD1789400C089E129D2CC2415
:10017000C39426D123E0889535D060FD12D061FD6F
:1001800026D066274216B9F323E088952BD060FD70
:1001900008D061FD1CD066274216B9F7FF2484E021
:1001A000E5CF0F931F930091B00000FF0DC0109199
:1001B000B200411649F41091B100311629F40091B2
:1001C000B300DAD06D7F00C01F910F9108950F9397
:1001D000332031F408E0401618F00091B400CCD080
:1001E0000F910895B79908950F931F932F93F89443
:1001F000002702BF6624789404E6B7996DC06016A4
:10020000E0F30C2D00680E7FC02E0091B00017E7C0
:10021000B12E66D00093B00098D00C2D006CC02E8B
:10022000CFD026B3207E203ED9F327FF16C026FF6D
:1002300008C00091B2000A950AF407E10093B200E9
:100240007CD025FF09C00091B2000395083108F069
:1002500000E00093B20071D0E3CF77D00C2D0F7B7C
:10026000006AC02EADD026B3207E203ED9F327FFF2
:1002700016C026FF08C00091B1000A950AF40BE3EE
:100280000093B1005AD025FF09C00091B100039539
:100290000C3308F000E00093B1004FD0E3CF55D00D
:1002A0000091B3002ED00093B3004091B00041FB09
:1002B00000F916E7B12E14D000FB41F94093B000CD
:1002C00044D00091B4001DD00093B4000C2D016007
:1002D0000F70C02E75D04ED12F911F910F910895A0
:1002E00000FD43D000FF3AD030D026B3207E203E20
:1002F000E1F327FF05C026FF0E7F25FF0160F0CF49
:1003000008950F930C2D0F7B0069C02E0F9158D0CC
:1003100026B3207E203ED9F327FF0EC026FF04C05F
:100320000A950AF404E009D025FF05C003950530BD
:1003300008F000E002D0EBCF08950F9366240EE1A1
:100340003FD06016E8F30F910895662414E126B3B8
:10035000207E203ED1F76116D0F308952FE3A22E20
:100360002EE4922E21E7822E089520E0A22E2FE384
:10037000922E27E3822E08950F939198BDD00030DE
:1003800031F00A959098B8D0909AB6D0F8CF919A5B
:100390000F9108950F931F93C198C09818E007FF1D
:1003A000969807FD969A0000C19A0000C198001F18
:1003B0001A95A9F7C09A0000C0981F910F9108954F
:1003C0000F931F932F93C4FC47C0042DC7FE09C091
:1003D0000091B200C6FE05C065FE03C0BB24AA247E
:1003E00017C070D0102F12951F70BB24103039F039
:1003F000F4E0E4EA20E0E10FF21FC895B02C102FE2
:100400001F70F4E0E4EA20E0E10FF21FC895A02C91
:10041000032DC7FE09C00091B100C5FE05C065FEF1
:1004200003C09924882414C04DD0102F12951F703A
:10043000F4E0E4EB20E0E10FF21FC895902C102FC0
:100440001F70F4E0E4EA20E0E10FF21FC895802C71
:100450002F911F910F9108959924AA24BB24F4E0B1
:10046000E4EA102F139520E0E10FF21FC895802CCD
:10047000EFCF0F9309B70F7D09BF0C2D0460C02E7D
:10048000C298C398C498959800E484DFC4980F91EB
:1004900008950F9309B7006209BF0C2D0B7FC02E82
:1004A0000F9108953F065B4F666D7D077F6F777CE8
:1004B000395E79713F305B79746D6F387F7E7E670E
:1004C0000F734F4E1F932F93102F002722271A30A0
:1004D0001CF003951A50FBCF0295010F2F911F912D
:1004E00008950F931F9303E619EC1A95F1F70A95F7
:1004F000D9F71F910F9108950F931F930FE110E803
:100500001A95F1F70A95D9F71F910F9108950F9356
:1005100004E6E7DF0A95E9F70F9108950895089535
:100520000F931F93F89448D000E00EBBE09A0DB3F0
:100530000093B00041D001E00EBBE09A0DB30093F0
:10054000B2003AD002E00EBBE09A0DB30093B100C6
:1005500033D003E00EBBE09A0DB30093B3002CD070
:1005600004E00EBBE09A0DB30093B40078941F91A1
:100570000F9108950F931F93F89400E01091B0002D
:1005800015D001E01091B20011D002E01091B1003D
:100590000DD003E01091B30009D004E01091B40035
:1005A00005D00AD078941F910F91089505D00EBB05
:1005B0001DBBE29AE19A0895E199FECF089566C0C5
:1005C00058DF8C9A949800E000936000B0E0A0E6B9
:1005D00000E010E40D931A95E9F70093A000009352
:1005E000A1000093A200DD24EE240027112722277A
:1005F000332744275527FF24481609F3839BFCCF54
:10060000002702BF662478DF4816C9F28399FCCF21
:10061000062D67DF8399F8CF25E609306CF30F309C
:1006200014F420E313C003313CF30A3114F421E342
:100630000DC00D310CF3033214F42CE407C0003369
:10064000DCF20733CCF623E501C024E70FE554DFE5
:100650006016ECF3233549F455270091600003350B
:1006600021F417D002E0F01689F05D3309F4552724
:10067000503011F4B0E0A0E62D935395022F0335CE
:1006800019F40AE04BDF03E549DFB6CF949A01DFA6
:1006900008950F931F932F930AE040DF0DE03EDF94
:1006A00095D00093A2003ADF00E238DFB0E0A0E688
:1006B000519620E302E332DF00E330DF00E014E094
:1006C000ABD0020F2BDF00E014E0A6D0020F26DF34
:1006D0000FE224DF00E011E09FD0020F1FDF00E0F7
:1006E00014E09AD0020F1ADF0FE218DF00E012E0E8
:1006F00093D0020F13DF00E014E08ED0020F0EDF64
:10070000139600E20BDF002712E086D079D0E12EAD
:10071000020F04DF002714E07FD0E00E020FFEDEA0
:100720000AE3FCDE00E013E077D06AD0D12E020F9E
:10073000F5DE00E014E070D0D00E020FEFDE00E234
:10074000EDDE00E0EE200CF4039518E1E1160CF06C
:100750000395DD200CF403951CE3D1160CF00395F2
:10076000002311F0FF2427C00091A200063511F0EC
:10077000FF2421C0F39402E0F01629F0E092A000DB
:10078000D092A10018C00091A000E016C1F4009121
:10079000A1000395D01699F402E0F02EF8944E2CA7
:1007A0003D2C222400E00093A30000E00093A3006E
:1007B0000DBD0CBD78942F911F910F910895FF24CA
:1007C000F394E092A000D092A100F5CF1F932F9355
:1007D0000027B0E0A0E6979617E22D91213309F4A7
:1007E000039513951433C9F720919900213309F427
:1007F0000395102F09E410FF06E52F911F9108952E
:100800000F932F9311272AE0003019F0120F0A9549
:10081000E9F72F910F9108952F93000F2D91203319
:0E08200009F001601A95C9F72F9108950000A4
:00000001FF
